:020000040800F2
:1000000000300020250F0008F90C0008FD0C000846
:10001000010D0008050D0008090D00080000000092
:100020000000000000000000000000000D0D0008AE
:10003000110D000800000000150D0008190D000842
:10004000750F0008750F0008750F0008750F000880
:10005000750F0008750F0008750F0008750F000870
:10006000750F0008750F0008750F0008750F000860
:10007000750F0008750F0008750F0008750F000850
:10008000750F0008750F0008750F0008750F000840
:10009000750F0008750F0008750F0008750F000830
:1000A000750F0008750F0008750F0008750F000820
:1000B000750F0008750F000800000000750F00089C
:1000C000750F00080000000000000000750F000818
:1000D00000000000750F0008750F0008750F00087C
:1000E000750F0008750F00080000000000000000F8
:1000F0000000000000000000000000000000000000
:1001000000000000000000000000000000000000EF
:100110000000000000000000750F0008750F0008C7
:1001200000000000000000000000000000000000CF
:1001300000000000000000000000000000000000BF
:10014000750F0008750F0008000000000000000097
:10015000000000000000000000000000000000009F
:10016000000000000000000000000000000000008F
:10017000000000000000000000000000000000007F
:0801800000000000750F0008EB
:1001880010B5054C237833B9044B13B10448AFF3C9
:1001980000800123237010BD04000020000000002F
:1001A800C40F0008084B10B51BB108490848AFF345
:1001B80000800848036803B910BD074B002BFBD02B
:1001C800BDE81040184700BF0000000008000020EC
:1001D800C40F0008040000200000000070B582B0C1
:1001E8000446036813F0010F00F09D80B64B5B686E
:1001F80003F00C03042B0AD0B34B5B6803F00C0329
:10020800082B1BD1B04B5B6813F4803F16D04FF41A
:10021800003393FAA3F3AC4B19684FF4003393FA05
:10022800A3F3B3FA83F303F01F03012202FA03F3E3
:10023800194278D06368002B75D1B8E26368B3F5CA
:10024800803F05D1A04A136843F48033136026E049
:1002580063B903F1804303F504331A6822F480324A
:100268001A601A6822F480221A6018E0B3F5A02FE9
:100278000CD103F18043A3F53C331A6842F4802281
:100288001A601A6842F480321A6008E08E4B1A68C5
:1002980022F480321A601A6822F480221A608A498D
:1002A800CB6A23F00F02A3681343CB626368EBB1F8
:1002B80000F064FD054605E000F060FD401B642881
:1002C80000F277824FF4003393FAA3F37E4B196858
:1002D8004FF4003393FAA3F3B3FA83F303F01F0345
:1002E800012202FA03F31942E6D01CE000F046FDB1
:1002F800054605E000F042FD401B642800F25B82E1
:100308004FF4003393FAA3F36F4B19684FF400339B
:1003180093FAA3F3B3FA83F303F01F03012202FA5B
:1003280003F31942E6D1236813F0020F00F090801E
:10033800654B5B6813F00C0F0AD0634B5B6803F0E6
:100348000C03082B27D1604B5B6813F4803F22D144
:10035800022393FAA3F35C4B1968022393FAA3F3DD
:10036800B3FA83F303F01F03012202FA03F31942DD
:1003780003D02369934240F020825348036823F056
:10038800F8016369F82292FAA2F2B2FA82F2934073
:100398000B4303605CE023699BB3012292FAA2F34A
:1003A800B3FA83F303F1845303F584139B001A60B3
:1003B80000F0E4FC054605E000F0E0FC401B0228E4
:1003C80000F2FD81022393FAA3F33F4B196802233D
:1003D80093FAA3F3B3FA83F303F01F03012202FA9B
:1003E80003F31942E8D03848036823F0F801636939
:1003F800F82292FAA2F2B2FA82F293400B43036017
:1004080026E0012393FAA3F3B3FA83F303F18453A9
:1004180003F584139B0000221A6000F0AFFC054628
:1004280005E000F0ABFC401B022800F2CA81022361
:1004380093FAA3F3244B1968022393FAA3F3B3FAAC
:1004480083F303F01F03012202FA03F31942E8D1F0
:10045800236813F0080F55D0A3693BB3012191FA23
:10046800A1F2B2FA82F2194B13449B00196000F012
:1004780085FC054605E000F081FC401B022800F2DF
:10048800A281022393FAA3F293FAA3F293FAA3F2B6
:100498000D4A516A93FAA3F3B3FA83F303F01F03E7
:1004A800012202FA03F31942E5D02BE0012292FA65
:1004B800A2F2B2FA82F2054B13449B0000221A60A2
:1004C80000F05CFC054609E0001002402081901015
:1004D80000F054FC401B022800F27781022393FAB3
:1004E800A3F293FAA3F293FAA3F2BE4A516A93FADB
:1004F800A3F3B3FA83F303F01F03012202FA03F311
:100508001942E5D1236813F0040F00F0BA80B54B07
:10051800DB6913F0805F0BD1B24BDA6942F080528D
:10052800DA61DB6903F080530193019B012500E048
:100538000025AD4B1B6813F4807F13D1AA4A1368BA
:1005480043F48073136000F019FC064605E000F0E0
:1005580015FC801B642800F23A81A34B1B6813F436
:10056800807FF4D0E368012B05D19E4A136A43F0DB
:100578000103136222E063B903F1804303F50433F6
:100588001A6A22F001021A621A6A22F004021A6236
:1005980014E0052B09D1934B1A6A42F004021A623F
:1005A8001A6A42F001021A6208E08E4B1A6A22F0B7
:1005B80001021A621A6A22F004021A62E3686BB333
:1005C80000F0DCFB064607E000F0D8FB801B41F298
:1005D8008833984200F2FD80022393FAA3F293FA3B
:1005E800A3F3B3FA83F35B0943F00203DBB2022BF4
:1005F80002D17C4B196A04E0022393FAA3F3794BE6
:10060800596A022393FAA3F3B3FA83F303F01F039F
:10061800012202FA03F31942D6D02CE000F0AEFB17
:10062800064607E000F0AAFB801B41F28833984297
:1006380000F2D180022393FAA3F293FAA3F3B3FA58
:1006480083F35B0943F00203DBB2022B02D1654B53
:10065800196A04E0022393FAA3F3624B596A02234E
:1006680093FAA3F3B3FA83F303F01F03012202FA08
:1006780003F31942D6D125B15A4AD36923F08053DE
:10068800D361E369002B00F0A880564A526802F053
:100698000C02082A00F0A380022B5DD14FF0807372
:1006A80093FAA3F3B3FA83F303F1845303F58413A2
:1006B8009B0000221A6000F061FB054605E000F08F
:1006C8005DFB401B022800F291804FF0007393FA03
:1006D800A3F3444B19684FF0007393FAA3F3B3FAEA
:1006E80083F303F01F03012202FA03F31942E6D150
:1006F8003C48436823F47411636A226A13430B432A
:1007080043604FF0807393FAA3F3B3FA83F303F1D2
:10071800845303F584139B0001221A6000F02EFB1A
:10072800044604E000F02AFB001B022860D84FF0C2
:10073800007393FAA3F32B4B19684FF0007393FAE5
:10074800A3F3B3FA83F303F01F03012202FA03F3BE
:100758001942E7D000204EE04FF0807393FAA3F3DC
:10076800B3FA83F303F1845303F584139B00002247
:100778001A6000F003FB044604E000F0FFFA001BD7
:10078800022837D84FF0007393FAA3F3154B196872
:100798004FF0007393FAA3F3B3FA83F303F01F0344
:1007A800012202FA03F31942E7D1002023E00120D5
:1007B80021E003201FE003201DE001201BE00320AF
:1007C80019E0032017E0032015E0032013E00320BD
:1007D80011E003200FE003200DE000200BE00120D2
:1007E80009E000BF0010024000700040032002E052
:1007F800032000E0032002B070BD00BF164B5B6809
:1008080003F00C02082A25D103F470114FF470127A
:1008180092FAA2F2B2FA82F221FA02F20F498A5C43
:100828000D49C96A01F00F000F2191FAA1F1B1FA3F
:1008380081F120FA01F10A48405C13F4803F05D0A9
:10084800084BB3FBF0F000FB02F07047064800FBD2
:1008580002F070470348704700100240EC0F000890
:10086800DC0F000800127A0000093D0070B5744BD7
:100878001B6803F007038B420BD2714A136823F0FD
:1008880007030B431360136803F00703994240F012
:10089800C680036813F0020F06D06A4C636823F021
:1008A800F0028368134363600D460446036813F03F
:1008B800010F75D04268012A13D14FF4003393FA1F
:1008C800A3F3604B18684FF4003393FAA3F3B3FA19
:1008D80083F303F01F03012101FA03F3184227D120
:1008E8009FE0022A13D14FF0007393FAA3F3554BFC
:1008F80018684FF0007393FAA3F3B3FA83F303F085
:100908001F03012101FA03F3184211D18BE00223DE
:1009180093FAA3F34B4B1868022393FAA3F3B3FAA1
:1009280083F303F01F03012101FA03F318427CD07B
:1009380044494B6823F0030313434B6000F01EFA4D
:1009480006466368012B0ED106E000F017FA801BFB
:1009580041F2883398426AD83A4B5B6803F00C033B
:10096800042BF2D11CE0022B15D106E000F006FAA8
:10097800801B41F2883398425BD8324B5B6803F0A6
:100988000C03082BF2D10BE000F0F8F9801B41F2C0
:10099800883398424FD82B4B5B6813F00C0FF3D178
:1009A800274B1B6803F007039D420AD2244A1368A9
:1009B80023F007032B431360136803F007039D42DA
:1009C8003BD1236813F0040F06D01E494B6823F46B
:1009D800E062E36813434B60236813F0080F07D005
:1009E800184A536823F46053216943EAC1035360EA
:1009F800FFF704FF134B5B6803F0F002F02393FA50
:100A0800A3F3B3FA83F322FA03F30F4AD35CD84073
:100A18000E4B1860002000F081F9002070BD012005
:100A280070BD012070BD012070BD012070BD032084
:100A380070BD032070BD032070BD012070BD00BFD4
:100A480000200240001002400810000800000020AA
:100A5800014B1868704700BF0000002010B586B031
:100A68000E4B5A6942F480225A615B6903F4802371
:100A78000093009B0A4C00220821204600F048FA07
:100A8800082301930123029300230393049301A9EC
:100A9800204600F079F906B010BD00BF00100240F2
:100AA80000040048FEE700BF00B591B0022306939A
:100AB80001230A9310230B9300230D9306A8FFF735
:100AC8008DFB18B17D211348FFF7ECFF0F2301932D
:100AD8000021029103910491059101A8FFF7C6FE38
:100AE80018B18B210B48FFF7DDFFFFF7B1FF0A4B69
:100AF800A3FB0030800900F09BF8042000F0AEF85A
:100B0800002211464FF0FF3000F060F811B05DF898
:100B180004FB00BFFC0F0008D34D621008B500F0BD
:100B280013F9FFF7C1FFFFF799FFFEE700B583B0A0
:100B38001C4B9A6942F001029A619B6903F0010318
:100B48000193019B032000F02FF8002211466FF05B
:100B58000B0000F03BF8002211466FF00A0000F08D
:100B680035F8002211466FF0090000F02FF8002236
:100B780011466FF0040000F029F8002211466FF0CA
:100B8800030000F023F8002211466FF0010000F086
:100B98001DF8002211464FF0FF3000F017F803B09F
:100BA8005DF804FB00100240074AD36823F4E063B1
:100BB8001B041B0C000200F4E060184340F0BF6007
:100BC80040F40030D060704700ED00E030B4164BC0
:100BD800DB68C3F30223C3F10704042C28BF0424F1
:100BE8001D1D062D01D9DD1E00E00025012303FA95
:100BF80004F4013C2140A940AB40013B1A400A43A0
:100C0800002806DA00F00F001201D2B2074B1A547E
:100C180007E01201D2B200F1604000F5614080F8AF
:100C2800002330BC704700BF00ED00E014ED00E089
:100C38000138B0F1807F0AD2064B5860F021064A8D
:100C480082F823100020986007221A60704701205C
:100C5800704700BF10E000E000ED00E0042805D177
:100C6800054A136843F0040313607047024A136887
:100C780023F004031360704710E000E0704700BFE2
:100C880008B5FFF7FBFF08BD1549D1F8883043F4D4
:100C98007003C1F88830134B1A6842F001021A60D9
:100CA8005868114A02405A601A6822F0847222F485
:100CB80080321A601A6822F480221A605A6822F474
:100CC800FE025A60DA6A22F00F02DA62186B074AEB
:100CD80002401A6300229A604FF000638B607047ED
:100CE80000ED00E0001002400CC07FF8CCFC00FFD3
:100CF800704700BFFEE700BFFEE700BFFEE700BF8A
:100D0800FEE700BF704700BF704700BF704700BFD5
:100D180008B500F02BF8FFF7B3FF08BD10B504467F
:100D2800074B1B680748A0FB03308009FFF780FFCB
:100D3800002221464FF0FF30FFF748FF002010BD8A
:100D480000000020D34D621008B5074A136843F02D
:100D5800100313600320FFF727FF0020FFF7DEFFD3
:100D6800FFF7E4FE002008BD00200240024A136895
:100D780001331360704700BF20000020014B186842
:100D8800704700BF20000020F0B583B00023AFE01B
:100D980001249C40224000F0AA804D68022D01D019
:100DA800122D10D1DE08083650F826C003F00705CA
:100DB800AF000F25BD402CEA050E0D69BD404EEA77
:100DC800050540F8265005685F000326BE40F64337
:100DD80005EA060E4D6805F00305BD404EEA050517
:100DE80005604D6805F1FF3EBEF1010F03D9112DD5
:100DF80001D0122D10D1856806EA050ECD68BD40D8
:100E08004EEA05058560456825EA04044D68C5F382
:100E180000159D4025434560C46826408C68BC4049
:100E28003443C4604C6814F0805F60D0344CA569CA
:100E380045F00105A561A46904F001040194019C31
:100E48009E08B51C2F4C54F8255003F00304A40049
:100E58000F27A74025EA0707B0F1904F0CD02A4D7D
:100E6800A8420BD005F58065A84209D005F5806534
:100E7800A84207D1032506E0002504E0012502E089
:100E8800022500E0052505FA04F43C4302361D4D11
:100E980045F826401D4C2568D44305EA04064F68EA
:100EA80017F4803F01D042EA0506184D2E606D68A0
:100EB80004EA05064F6817F4003F01D042EA050628
:100EC800124D6E60AD6804EA05064F6817F4801F7E
:100ED80001D042EA05060D4DAE60ED682C404E6823
:100EE80016F4001F01D042EA0504084AD460013311
:100EF8000A6832FA03F47FF44BAF03B0F0BD00BFC9
:100F080000100240000001400004004800040140B5
:100F18000AB1816170478162704700BFDFF834D041
:100F2800002103E00C4B5B58435004310B480C4B39
:100F380042189A42F6D30B4A02E0002342F8043BD7
:100F4800094B9A42F9D3FFF79FFE00F011F8FFF71B
:100F5800E5FDFEE70030002020100008000000201A
:100F6800040000200400002024000020FEE7000008
:100F780070B50E4B0E4CE41AA41000251E46A5426F
:100F880004D056F8253098470135F8E700F016F8F0
:100F9800084C094BE41AA41000251E46A54204D0AB
:100FA80056F8253098470135F8E770BD1810000845
:100FB800181000081C10000818100008F8B500BF29
:100FC800F8BC08BC9E467047F8B500BFF8BC08BC22
:040FD8009E4670477A
:100FDC000102030405060708090A0B0C0D0E0F107D
:100FEC0002030405060708090A0B0C0D0E0F10105E
:100FFC005372632F6D61696E2E6300000000000058
:0C100C00000000000102030406070809B0
:04101800AD0100081E
:04101C00890100083E
:0410200000127A0040
:0400000508000F25BB
:00000001FF
